{
  "contractName": "DonationToken",
  "abi": [
    {
      "constant": true,
      "inputs": [],
      "name": "name",
      "outputs": [
        {
          "name": "",
          "type": "string"
        }
      ],
      "payable": false,
      "stateMutability": "view",
      "type": "function"
    },
    {
      "constant": false,
      "inputs": [
        {
          "name": "spender",
          "type": "address"
        },
        {
          "name": "amount",
          "type": "uint256"
        }
      ],
      "name": "approve",
      "outputs": [
        {
          "name": "",
          "type": "bool"
        }
      ],
      "payable": false,
      "stateMutability": "nonpayable",
      "type": "function"
    },
    {
      "constant": true,
      "inputs": [],
      "name": "totalSupply",
      "outputs": [
        {
          "name": "",
          "type": "uint256"
        }
      ],
      "payable": false,
      "stateMutability": "view",
      "type": "function"
    },
    {
      "constant": false,
      "inputs": [
        {
          "name": "sender",
          "type": "address"
        },
        {
          "name": "recipient",
          "type": "address"
        },
        {
          "name": "amount",
          "type": "uint256"
        }
      ],
      "name": "transferFrom",
      "outputs": [
        {
          "name": "",
          "type": "bool"
        }
      ],
      "payable": false,
      "stateMutability": "nonpayable",
      "type": "function"
    },
    {
      "constant": true,
      "inputs": [],
      "name": "INITIAL_SUPPLY",
      "outputs": [
        {
          "name": "",
          "type": "uint256"
        }
      ],
      "payable": false,
      "stateMutability": "view",
      "type": "function"
    },
    {
      "constant": true,
      "inputs": [],
      "name": "decimals",
      "outputs": [
        {
          "name": "",
          "type": "uint8"
        }
      ],
      "payable": false,
      "stateMutability": "view",
      "type": "function"
    },
    {
      "constant": false,
      "inputs": [
        {
          "name": "spender",
          "type": "address"
        },
        {
          "name": "addedValue",
          "type": "uint256"
        }
      ],
      "name": "increaseAllowance",
      "outputs": [
        {
          "name": "",
          "type": "bool"
        }
      ],
      "payable": false,
      "stateMutability": "nonpayable",
      "type": "function"
    },
    {
      "constant": false,
      "inputs": [],
      "name": "renounceOwnership",
      "outputs": [],
      "payable": false,
      "stateMutability": "nonpayable",
      "type": "function"
    },
    {
      "constant": true,
      "inputs": [],
      "name": "description",
      "outputs": [
        {
          "name": "",
          "type": "string"
        }
      ],
      "payable": false,
      "stateMutability": "view",
      "type": "function"
    },
    {
      "constant": true,
      "inputs": [],
      "name": "owner",
      "outputs": [
        {
          "name": "",
          "type": "address"
        }
      ],
      "payable": false,
      "stateMutability": "view",
      "type": "function"
    },
    {
      "constant": true,
      "inputs": [],
      "name": "isOwner",
      "outputs": [
        {
          "name": "",
          "type": "bool"
        }
      ],
      "payable": false,
      "stateMutability": "view",
      "type": "function"
    },
    {
      "constant": true,
      "inputs": [],
      "name": "symbol",
      "outputs": [
        {
          "name": "",
          "type": "string"
        }
      ],
      "payable": false,
      "stateMutability": "view",
      "type": "function"
    },
    {
      "constant": true,
      "inputs": [
        {
          "name": "",
          "type": "uint256"
        }
      ],
      "name": "donationPlans",
      "outputs": [
        {
          "name": "goal",
          "type": "uint256"
        },
        {
          "name": "duration",
          "type": "uint256"
        },
        {
          "name": "beneficiary",
          "type": "address"
        },
        {
          "name": "totalDonated",
          "type": "uint256"
        },
        {
          "name": "donationDescription",
          "type": "string"
        }
      ],
      "payable": false,
      "stateMutability": "view",
      "type": "function"
    },
    {
      "constant": false,
      "inputs": [
        {
          "name": "spender",
          "type": "address"
        },
        {
          "name": "subtractedValue",
          "type": "uint256"
        }
      ],
      "name": "decreaseAllowance",
      "outputs": [
        {
          "name": "",
          "type": "bool"
        }
      ],
      "payable": false,
      "stateMutability": "nonpayable",
      "type": "function"
    },
    {
      "constant": false,
      "inputs": [
        {
          "name": "recipient",
          "type": "address"
        },
        {
          "name": "amount",
          "type": "uint256"
        }
      ],
      "name": "transfer",
      "outputs": [
        {
          "name": "",
          "type": "bool"
        }
      ],
      "payable": false,
      "stateMutability": "nonpayable",
      "type": "function"
    },
    {
      "constant": true,
      "inputs": [],
      "name": "owneracc",
      "outputs": [
        {
          "name": "",
          "type": "address"
        }
      ],
      "payable": false,
      "stateMutability": "view",
      "type": "function"
    },
    {
      "constant": true,
      "inputs": [
        {
          "name": "owner",
          "type": "address"
        },
        {
          "name": "spender",
          "type": "address"
        }
      ],
      "name": "allowance",
      "outputs": [
        {
          "name": "",
          "type": "uint256"
        }
      ],
      "payable": false,
      "stateMutability": "view",
      "type": "function"
    },
    {
      "constant": false,
      "inputs": [
        {
          "name": "newOwner",
          "type": "address"
        }
      ],
      "name": "transferOwnership",
      "outputs": [],
      "payable": false,
      "stateMutability": "nonpayable",
      "type": "function"
    },
    {
      "inputs": [],
      "payable": false,
      "stateMutability": "nonpayable",
      "type": "constructor"
    },
    {
      "anonymous": false,
      "inputs": [
        {
          "indexed": true,
          "name": "donor",
          "type": "address"
        },
        {
          "indexed": true,
          "name": "charity",
          "type": "address"
        },
        {
          "indexed": false,
          "name": "amount",
          "type": "uint256"
        }
      ],
      "name": "Donated",
      "type": "event"
    },
    {
      "anonymous": false,
      "inputs": [
        {
          "indexed": true,
          "name": "previousOwner",
          "type": "address"
        },
        {
          "indexed": true,
          "name": "newOwner",
          "type": "address"
        }
      ],
      "name": "OwnershipTransferred",
      "type": "event"
    },
    {
      "anonymous": false,
      "inputs": [
        {
          "indexed": true,
          "name": "from",
          "type": "address"
        },
        {
          "indexed": true,
          "name": "to",
          "type": "address"
        },
        {
          "indexed": false,
          "name": "value",
          "type": "uint256"
        }
      ],
      "name": "Transfer",
      "type": "event"
    },
    {
      "anonymous": false,
      "inputs": [
        {
          "indexed": true,
          "name": "owner",
          "type": "address"
        },
        {
          "indexed": true,
          "name": "spender",
          "type": "address"
        },
        {
          "indexed": false,
          "name": "value",
          "type": "uint256"
        }
      ],
      "name": "Approval",
      "type": "event"
    },
    {
      "constant": false,
      "inputs": [
        {
          "name": "_goal",
          "type": "uint256"
        },
        {
          "name": "_duration",
          "type": "uint256"
        },
        {
          "name": "_beneficiary",
          "type": "address"
        },
        {
          "name": "_donationDescription",
          "type": "string"
        }
      ],
      "name": "createDonationPlan",
      "outputs": [],
      "payable": false,
      "stateMutability": "nonpayable",
      "type": "function"
    },
    {
      "constant": false,
      "inputs": [
        {
          "name": "receiver",
          "type": "address"
        },
        {
          "name": "_amount",
          "type": "uint256"
        }
      ],
      "name": "giveToken",
      "outputs": [],
      "payable": false,
      "stateMutability": "nonpayable",
      "type": "function"
    },
    {
      "constant": false,
      "inputs": [
        {
          "name": "_planIndex",
          "type": "uint256"
        },
        {
          "name": "_amount",
          "type": "uint256"
        }
      ],
      "name": "donate",
      "outputs": [],
      "payable": false,
      "stateMutability": "nonpayable",
      "type": "function"
    },
    {
      "constant": true,
      "inputs": [
        {
          "name": "_planIndex",
          "type": "uint256"
        }
      ],
      "name": "getDonors",
      "outputs": [
        {
          "name": "",
          "type": "address[]"
        }
      ],
      "payable": false,
      "stateMutability": "view",
      "type": "function"
    },
    {
      "constant": true,
      "inputs": [],
      "name": "getNumDonationPlans",
      "outputs": [
        {
          "name": "",
          "type": "uint256"
        }
      ],
      "payable": false,
      "stateMutability": "view",
      "type": "function"
    },
    {
      "constant": true,
      "inputs": [
        {
          "name": "index",
          "type": "uint256"
        }
      ],
      "name": "getDonationPlan",
      "outputs": [
        {
          "name": "goal",
          "type": "uint256"
        },
        {
          "name": "duration",
          "type": "uint256"
        },
        {
          "name": "beneficiary",
          "type": "address"
        },
        {
          "name": "totalDonated",
          "type": "uint256"
        },
        {
          "name": "donationDescription",
          "type": "string"
        }
      ],
      "payable": false,
      "stateMutability": "view",
      "type": "function"
    },
    {
      "constant": true,
      "inputs": [
        {
          "name": "account",
          "type": "address"
        }
      ],
      "name": "balanceOf",
      "outputs": [
        {
          "name": "",
          "type": "uint256"
        }
      ],
      "payable": false,
      "stateMutability": "view",
      "type": "function"
    }
  ],
  "bytecode": "0x60c0604052600a60808190527f4348415249544f4b454e0000000000000000000000000000000000000000000060a090815262000040916004919062000314565b506040805180820190915260178082527f48454c50494e2054484520504f4f5220494e204e4545440000000000000000006020909201918252620000879160059162000314565b506040805180820190915260078082527f43484152495459000000000000000000000000000000000000000000000000006020909201918252620000ce9160069162000314565b506007805460ff1916905562989680600855348015620000ed57600080fd5b50620000fe6200017660201b60201c565b600380546001600160a01b0319166001600160a01b0392831617908190556040519116906000907f8be0079c531659141344cd1fd0a4f28419497f9722a3daafe3b4186f6b6457e0908290a36200015e336008546200017b60201b60201c565b600980546001600160a01b03191633179055620003b6565b335b90565b6001600160a01b0382161515620001f357604080517f08c379a000000000000000000000000000000000000000000000000000000000815260206004820152601f60248201527f45524332303a206d696e7420746f20746865207a65726f206164647265737300604482015290519081900360640190fd5b6200020f816002546200029860201b620013c41790919060201c565b6002556001600160a01b0382166000908152602081815260409091205462000242918390620013c462000298821b17901c565b6001600160a01b0383166000818152602081815260408083209490945583518581529351929391927fddf252ad1be2c89b69c2b068fc378daa952ba7f163c4a11628f55a4df523b3ef9281900390910190a35050565b6000828201838110156200030d57604080517f08c379a000000000000000000000000000000000000000000000000000000000815260206004820152601b60248201527f536166654d6174683a206164646974696f6e206f766572666c6f770000000000604482015290519081900360640190fd5b9392505050565b828054600181600116156101000203166002900490600052602060002090601f016020900481019282601f106200035757805160ff191683800117855562000387565b8280016001018555821562000387579182015b82811115620003875782518255916020019190600101906200036a565b506200039592915062000399565b5090565b6200017891905b80821115620003955760008155600101620003a0565b61177f80620003c66000396000f3fe608060405234801561001057600080fd5b50600436106101735760003560e01c806370a08231116100de5780639d071fe011610097578063b7cde4f811610071578063b7cde4f8146105ae578063c1a2637f146105b6578063dd62ed3e146105d3578063f2fde38b1461060157610173565b80639d071fe014610493578063a457c2d714610556578063a9059cbb1461058257610173565b806370a0823114610429578063715018a61461044f5780637284e416146104575780638da5cb5b1461045f5780638f32d59b1461048357806395d89b411461048b57610173565b806323b872dd1161013057806323b872dd1461032c57806328574afb14610362578063295165111461036a5780632ff2e9dc146103d7578063313ce567146103df57806339509351146103fd57610173565b80630555d7c31461017857806306fdde0314610206578063095ea7b3146102835780630cdd53f6146102c357806318160ddd146102e6578063193f974c14610300575b600080fd5b6102046004803603608081101561018e57600080fd5b8135916020810135916001600160a01b0360408301351691908101906080810160608201356401000000008111156101c557600080fd5b8201836020820111156101d757600080fd5b803590602001918460018302840111640100000000831117156101f957600080fd5b509092509050610627565b005b61020e61078e565b6040805160208082528351818301528351919283929083019185019080838360005b83811015610248578181015183820152602001610230565b50505050905090810190601f1680156102755780820380516001836020036101000a031916815260200191505b509250505060405180910390f35b6102af6004803603604081101561029957600080fd5b506001600160a01b03813516906020013561081c565b604080519115158252519081900360200190f35b610204600480360360408110156102d957600080fd5b5080359060200135610839565b6102ee6109e7565b60408051918252519081900360200190f35b6102046004803603604081101561031657600080fd5b506001600160a01b0381351690602001356109ee565b6102af6004803603606081101561034257600080fd5b506001600160a01b038135811691602081013590911690604001356109fd565b6102ee610a8a565b6103876004803603602081101561038057600080fd5b5035610a90565b60408051602080825283518183015283519192839290830191858101910280838360005b838110156103c35781810151838201526020016103ab565b505050509050019250505060405180910390f35b6102ee610b6a565b6103e7610b70565b6040805160ff9092168252519081900360200190f35b6102af6004803603604081101561041357600080fd5b506001600160a01b038135169060200135610b79565b6102ee6004803603602081101561043f57600080fd5b50356001600160a01b0316610bcd565b610204610bde565b61020e610c86565b610467610ce1565b604080516001600160a01b039092168252519081900360200190f35b6102af610cf0565b61020e610d16565b6104b0600480360360208110156104a957600080fd5b5035610d71565b60405180868152602001858152602001846001600160a01b03166001600160a01b0316815260200183815260200180602001828103825283818151815260200191508051906020019080838360005b838110156105175781810151838201526020016104ff565b50505050905090810190601f1680156105445780820380516001836020036101000a031916815260200191505b50965050505050505060405180910390f35b6102af6004803603604081101561056c57600080fd5b506001600160a01b038135169060200135610e4a565b6102af6004803603604081101561059857600080fd5b506001600160a01b038135169060200135610eb8565b610467610ecc565b6104b0600480360360208110156105cc57600080fd5b5035610edb565b6102ee600480360360408110156105e957600080fd5b506001600160a01b0381358116916020013516611035565b6102046004803603602081101561061757600080fd5b50356001600160a01b0316611060565b83151561067e5760408051600160e51b62461bcd02815260206004820152601f60248201527f4475726174696f6e206d7573742062652067726561746572207468616e203000604482015290519081900360640190fd5b600a6040518060c00160405280878152602001868152602001856001600160a01b031681526020016000815260200184848080601f016020809104026020016040519081016040528093929190818152602001838380828437600092018290525093855250506040805183815260208082018352948501528554600180820180895597855293859020865160069092020190815585850151938101939093558401516002830180546001600160a01b0319166001600160a01b039092169190911790555060608301516003820155608083015180519192610767926004850192909101906114e9565b5060a08201518051610783916005840191602090910190611567565b505050505050505050565b6004805460408051602060026001851615610100026000190190941693909304601f810184900484028201840190925281815292918301828280156108145780601f106107e957610100808354040283529160200191610814565b820191906000526020600020905b8154815290600101906020018083116107f757829003601f168201915b505050505081565b60006108306108296110ca565b84846110ce565b50600192915050565b600a54821061088a5760408051600160e51b62461bcd0281526020600482015260126024820152600160731b71092dcecc2d8d2c840e0d8c2dc40d2dcc8caf02604482015290519081900360640190fd5b8015156108cb57604051600160e51b62461bcd0281526004018080602001828103825260268152602001806116726026913960400191505060405180910390fd5b6000600a838154811015156108dc57fe5b6000918252602090912060069091020160028101549091506001600160a01b031615156109535760408051600160e51b62461bcd02815260206004820152601760248201527f496e76616c696420636861726974792061646472657373000000000000000000604482015290519081900360640190fd5b600281015461096b906001600160a01b031683610eb8565b5060028101546040805184815290516001600160a01b039092169133917f4dfff917e1fbb261a082e98cc7d43029621f6a6eb05ff3fef1510d5f1eb4857c919081900360200190a3600581018054600181018255600091825260209091200180546001600160a01b031916331790556003018054909101905550565b6002545b90565b6109f88282610eb8565b505050565b6000610a0a8484846111c4565b610a8084610a166110ca565b610a7b856040518060600160405280602881526020016116be602891396001600160a01b038a16600090815260016020526040812090610a546110ca565b6001600160a01b03168152602081019190915260400160002054919063ffffffff61132a16565b6110ce565b5060019392505050565b600a5490565b600a546060908210610ae45760408051600160e51b62461bcd0281526020600482015260126024820152600160731b71092dcecc2d8d2c840e0d8c2dc40d2dcc8caf02604482015290519081900360640190fd5b6000600a83815481101515610af557fe5b9060005260206000209060060201905080600501805480602002602001604051908101604052809291908181526020018280548015610b5d57602002820191906000526020600020905b81546001600160a01b03168152600190910190602001808311610b3f575b5050505050915050919050565b60085481565b60075460ff1681565b6000610830610b866110ca565b84610a7b8560016000610b976110ca565b6001600160a01b03908116825260208083019390935260409182016000908120918c16815292529020549063ffffffff6113c416565b6000610bd882611428565b92915050565b610be6610cf0565b1515610c3c5760408051600160e51b62461bcd02815260206004820181905260248201527f4f776e61626c653a2063616c6c6572206973206e6f7420746865206f776e6572604482015290519081900360640190fd5b6003546040516000916001600160a01b0316907f8be0079c531659141344cd1fd0a4f28419497f9722a3daafe3b4186f6b6457e0908390a3600380546001600160a01b0319169055565b6005805460408051602060026001851615610100026000190190941693909304601f810184900484028201840190925281815292918301828280156108145780601f106107e957610100808354040283529160200191610814565b6003546001600160a01b031690565b6003546000906001600160a01b0316610d076110ca565b6001600160a01b031614905090565b6006805460408051602060026001851615610100026000190190941693909304601f810184900484028201840190925281815292918301828280156108145780601f106107e957610100808354040283529160200191610814565b600a805482908110610d7f57fe5b600091825260209182902060069190910201805460018083015460028085015460038601546004870180546040805161010098831615989098026000190190911694909404601f81018a90048a0287018a0190945283865295985092966001600160a01b039091169592949293929190830182828015610e405780601f10610e1557610100808354040283529160200191610e40565b820191906000526020600020905b815481529060010190602001808311610e2357829003601f168201915b5050505050905085565b6000610830610e576110ca565b84610a7b8560405180606001604052806025815260200161172f6025913960016000610e816110ca565b6001600160a01b03908116825260208083019390935260409182016000908120918d1681529252902054919063ffffffff61132a16565b6000610830610ec56110ca565b84846111c4565b6009546001600160a01b031681565b6000806000806060600a8054905086101515610f395760408051600160e51b62461bcd0281526020600482015260126024820152600160731b71092dcecc2d8d2c840e0d8c2dc40d2dcc8caf02604482015290519081900360640190fd5b6000600a87815481101515610f4a57fe5b90600052602060002090600602019050806000015481600101548260020160009054906101000a90046001600160a01b0316836003015484600401808054600181600116156101000203166002900480601f01602080910402602001604051908101604052809291908181526020018280546001816001161561010002031660029004801561101a5780601f10610fef5761010080835404028352916020019161101a565b820191906000526020600020905b815481529060010190602001808311610ffd57829003601f168201915b50505050509050955095509550955095505091939590929450565b6001600160a01b03918216600090815260016020908152604080832093909416825291909152205490565b611068610cf0565b15156110be5760408051600160e51b62461bcd02815260206004820181905260248201527f4f776e61626c653a2063616c6c6572206973206e6f7420746865206f776e6572604482015290519081900360640190fd5b6110c781611443565b50565b3390565b6001600160a01b038316151561111857604051600160e51b62461bcd02815260040180806020018281038252602481526020018061170b6024913960400191505060405180910390fd5b6001600160a01b038216151561116257604051600160e51b62461bcd0281526004018080602001828103825260228152602001806116506022913960400191505060405180910390fd5b6001600160a01b03808416600081815260016020908152604080832094871680845294825291829020859055815185815291517f8c5be1e5ebec7d5bd14f71427d1e84f3dd0314c0f7b2291e5b200ac8c7c3b9259281900390910190a3505050565b6001600160a01b038316151561120e57604051600160e51b62461bcd0281526004018080602001828103825260258152602001806116e66025913960400191505060405180910390fd5b6001600160a01b038216151561125857604051600160e51b62461bcd0281526004018080602001828103825260238152602001806116076023913960400191505060405180910390fd5b61129b81604051806060016040528060268152602001611698602691396001600160a01b038616600090815260208190526040902054919063ffffffff61132a16565b6001600160a01b0380851660009081526020819052604080822093909355908416815220546112d0908263ffffffff6113c416565b6001600160a01b038084166000818152602081815260409182902094909455805185815290519193928716927fddf252ad1be2c89b69c2b068fc378daa952ba7f163c4a11628f55a4df523b3ef92918290030190a3505050565b600081848411156113bc57604051600160e51b62461bcd0281526004018080602001828103825283818151815260200191508051906020019080838360005b83811015611381578181015183820152602001611369565b50505050905090810190601f1680156113ae5780820380516001836020036101000a031916815260200191505b509250505060405180910390fd5b505050900390565b6000828201838110156114215760408051600160e51b62461bcd02815260206004820152601b60248201527f536166654d6174683a206164646974696f6e206f766572666c6f770000000000604482015290519081900360640190fd5b9392505050565b6001600160a01b031660009081526020819052604090205490565b6001600160a01b038116151561148d57604051600160e51b62461bcd02815260040180806020018281038252602681526020018061162a6026913960400191505060405180910390fd5b6003546040516001600160a01b038084169216907f8be0079c531659141344cd1fd0a4f28419497f9722a3daafe3b4186f6b6457e090600090a3600380546001600160a01b0319166001600160a01b0392909216919091179055565b828054600181600116156101000203166002900490600052602060002090601f016020900481019282601f1061152a57805160ff1916838001178555611557565b82800160010185558215611557579182015b8281111561155757825182559160200191906001019061153c565b506115639291506115c8565b5090565b8280548282559060005260206000209081019282156115bc579160200282015b828111156115bc57825182546001600160a01b0319166001600160a01b03909116178255602090920191600190910190611587565b506115639291506115e2565b6109eb91905b8082111561156357600081556001016115ce565b6109eb91905b808211156115635780546001600160a01b03191681556001016115e856fe45524332303a207472616e7366657220746f20746865207a65726f20616464726573734f776e61626c653a206e6577206f776e657220697320746865207a65726f206164647265737345524332303a20617070726f766520746f20746865207a65726f2061646472657373446f6e6174696f6e20616d6f756e74206d7573742062652067726561746572207468616e203045524332303a207472616e7366657220616d6f756e7420657863656564732062616c616e636545524332303a207472616e7366657220616d6f756e74206578636565647320616c6c6f77616e636545524332303a207472616e736665722066726f6d20746865207a65726f206164647265737345524332303a20617070726f76652066726f6d20746865207a65726f206164647265737345524332303a2064656372656173656420616c6c6f77616e63652062656c6f77207a65726fa165627a7a72305820b027f796746ea8a3194549c2f5068290deb8c212ebd9c02c3f2c937e0e84d0a20029",
  "source": "// SPDX-License-Identifier: MIT\npragma solidity >=0.4.22 <0.9.0;\n\nimport \"@openzeppelin/contracts/token/ERC20/ERC20.sol\";\nimport \"@openzeppelin/contracts/ownership/Ownable.sol\";\n\ncontract DonationToken is ERC20, Ownable {\n    string public name = \"CHARITOKEN\";\n    string public description = \"HELPIN THE POOR IN NEED\";\n    string public symbol = \"CHARITY\";\n    uint8 public decimals = 0;\n    uint256 public INITIAL_SUPPLY = 10000000;\n\n    address public owneracc;\n\n    constructor() public {\n        _mint(msg.sender, INITIAL_SUPPLY);\n        owneracc = msg.sender;\n    }\n\n    struct DonationPlan {\n        uint256 goal;\n        uint256 duration;\n        address beneficiary;\n        uint256 totalDonated;\n        string donationDescription;\n        address[] donors;\n    }\n\n    DonationPlan[] public donationPlans;\n\n    event Donated(\n        address indexed donor,\n        address indexed charity,\n        uint256 amount\n    );\n\n    function createDonationPlan(\n        uint256 _goal,\n        uint256 _duration,\n        address _beneficiary,\n        string calldata _donationDescription\n    ) external {\n        require(_duration > 0, \"Duration must be greater than 0\");\n\n        donationPlans.push(\n            DonationPlan({\n                goal: _goal,\n                duration: _duration,\n                beneficiary: _beneficiary,\n                totalDonated: 0,\n                donationDescription: _donationDescription,\n                donors: new address[](0)\n            })\n        );\n    }\n\n    function giveToken(address receiver, uint256 _amount) public{\n        transfer(receiver, _amount);\n    }\n\n    function donate(uint256 _planIndex, uint256 _amount) external {\n        require(_planIndex < donationPlans.length, \"Invalid plan index\");\n        require(_amount > 0, \"Donation amount must be greater than 0\");\n\n        DonationPlan storage plan = donationPlans[_planIndex];\n\n        require(plan.beneficiary != address(0), \"Invalid charity address\");\n\n        transfer(plan.beneficiary, _amount);\n\n        emit Donated(msg.sender, plan.beneficiary, _amount);\n\n        plan.donors.push(msg.sender);\n\n        plan.totalDonated += _amount;\n    }\n\n    function getDonors(\n        uint256 _planIndex\n    ) external view returns (address[] memory) {\n        require(_planIndex < donationPlans.length, \"Invalid plan index\");\n        DonationPlan storage plan = donationPlans[_planIndex];\n        return plan.donors;\n    }\n\n    function getNumDonationPlans() external view returns (uint256) {\n        return donationPlans.length;\n    }\n\n    function getDonationPlan(\n        uint256 index\n    )\n        external\n        view\n        returns (\n            uint256 goal,\n            uint256 duration,\n            address beneficiary,\n            uint256 totalDonated,\n            string memory donationDescription\n        )\n    {\n        require(index < donationPlans.length, \"Invalid plan index\");\n        DonationPlan storage plan = donationPlans[index];\n        return (\n            plan.goal,\n            plan.duration,\n            plan.beneficiary,\n            plan.totalDonated,\n            plan.donationDescription\n        );\n    }\n\n\n    function balanceOf(address account) public view returns (uint256) {\n        return super.balanceOf(account);\n    }\n}\n",
  "sourcePath": "/workspace/contracts/DonationToken.sol",
  "compiler": {
    "name": "solc",
    "version": "0.5.5+commit.47a71e8f.Emscripten.clang"
  },
  "schemaVersion": "3.4.0",
  "updatedAt": "2024-11-19T21:19:56.472Z",
  "networkType": "ethereum",
  "devdoc": {
    "methods": {
      "allowance(address,address)": {
        "details": "See {IERC20-allowance}."
      },
      "approve(address,uint256)": {
        "details": "See {IERC20-approve}.     * Requirements:     * - `spender` cannot be the zero address."
      },
      "decreaseAllowance(address,uint256)": {
        "details": "Atomically decreases the allowance granted to `spender` by the caller.     * This is an alternative to {approve} that can be used as a mitigation for problems described in {IERC20-approve}.     * Emits an {Approval} event indicating the updated allowance.     * Requirements:     * - `spender` cannot be the zero address. - `spender` must have allowance for the caller of at least `subtractedValue`."
      },
      "increaseAllowance(address,uint256)": {
        "details": "Atomically increases the allowance granted to `spender` by the caller.     * This is an alternative to {approve} that can be used as a mitigation for problems described in {IERC20-approve}.     * Emits an {Approval} event indicating the updated allowance.     * Requirements:     * - `spender` cannot be the zero address."
      },
      "isOwner()": {
        "details": "Returns true if the caller is the current owner."
      },
      "owner()": {
        "details": "Returns the address of the current owner."
      },
      "renounceOwnership()": {
        "details": "Leaves the contract without owner. It will not be possible to call `onlyOwner` functions anymore. Can only be called by the current owner.     * NOTE: Renouncing ownership will leave the contract without an owner, thereby removing any functionality that is only available to the owner."
      },
      "totalSupply()": {
        "details": "See {IERC20-totalSupply}."
      },
      "transfer(address,uint256)": {
        "details": "See {IERC20-transfer}.     * Requirements:     * - `recipient` cannot be the zero address. - the caller must have a balance of at least `amount`."
      },
      "transferFrom(address,address,uint256)": {
        "details": "See {IERC20-transferFrom}.     * Emits an {Approval} event indicating the updated allowance. This is not required by the EIP. See the note at the beginning of {ERC20};     * Requirements: - `sender` and `recipient` cannot be the zero address. - `sender` must have a balance of at least `amount`. - the caller must have allowance for `sender`'s tokens of at least `amount`."
      },
      "transferOwnership(address)": {
        "details": "Transfers ownership of the contract to a new account (`newOwner`). Can only be called by the current owner."
      }
    }
  },
  "userdoc": {
    "methods": {}
  }
}